{
  "contractName": "product",
  "abi": [
    {
      "inputs": [
        {
          "internalType": "uint256",
          "name": "",
          "type": "uint256"
        }
      ],
      "name": "fakeProductReports",
      "outputs": [
        {
          "internalType": "uint256",
          "name": "reportId",
          "type": "uint256"
        },
        {
          "internalType": "bytes32",
          "name": "productSN",
          "type": "bytes32"
        },
        {
          "internalType": "bytes32",
          "name": "reporterCode",
          "type": "bytes32"
        },
        {
          "internalType": "bytes32",
          "name": "description",
          "type": "bytes32"
        },
        {
          "internalType": "bytes32",
          "name": "status",
          "type": "bytes32"
        },
        {
          "internalType": "uint256",
          "name": "timestamp",
          "type": "uint256"
        }
      ],
      "stateMutability": "view",
      "type": "function"
    },
    {
      "inputs": [
        {
          "internalType": "bytes32",
          "name": "",
          "type": "bytes32"
        }
      ],
      "name": "manufacturerExists",
      "outputs": [
        {
          "internalType": "bool",
          "name": "",
          "type": "bool"
        }
      ],
      "stateMutability": "view",
      "type": "function"
    },
    {
      "inputs": [
        {
          "internalType": "bytes32",
          "name": "",
          "type": "bytes32"
        },
        {
          "internalType": "uint256",
          "name": "",
          "type": "uint256"
        }
      ],
      "name": "manufacturerReports",
      "outputs": [
        {
          "internalType": "uint256",
          "name": "",
          "type": "uint256"
        }
      ],
      "stateMutability": "view",
      "type": "function"
    },
    {
      "inputs": [
        {
          "internalType": "uint256",
          "name": "",
          "type": "uint256"
        }
      ],
      "name": "manufacturers",
      "outputs": [
        {
          "internalType": "uint256",
          "name": "manufacturerId",
          "type": "uint256"
        },
        {
          "internalType": "bytes32",
          "name": "manufacturerName",
          "type": "bytes32"
        },
        {
          "internalType": "bytes32",
          "name": "manufacturerBrand",
          "type": "bytes32"
        },
        {
          "internalType": "bytes32",
          "name": "manufacturerCode",
          "type": "bytes32"
        },
        {
          "internalType": "uint256",
          "name": "manufacturerPhone",
          "type": "uint256"
        },
        {
          "internalType": "bytes32",
          "name": "manufacturerManager",
          "type": "bytes32"
        },
        {
          "internalType": "bytes32",
          "name": "manufacturerAddress",
          "type": "bytes32"
        }
      ],
      "stateMutability": "view",
      "type": "function"
    },
    {
      "inputs": [
        {
          "internalType": "uint256",
          "name": "",
          "type": "uint256"
        }
      ],
      "name": "productItems",
      "outputs": [
        {
          "internalType": "uint256",
          "name": "productId",
          "type": "uint256"
        },
        {
          "internalType": "bytes32",
          "name": "productSN",
          "type": "bytes32"
        },
        {
          "internalType": "bytes32",
          "name": "productName",
          "type": "bytes32"
        },
        {
          "internalType": "bytes32",
          "name": "productBrand",
          "type": "bytes32"
        },
        {
          "internalType": "uint256",
          "name": "productPrice",
          "type": "uint256"
        },
        {
          "internalType": "bytes32",
          "name": "productStatus",
          "type": "bytes32"
        }
      ],
      "stateMutability": "view",
      "type": "function"
    },
    {
      "inputs": [
        {
          "internalType": "bytes32",
          "name": "",
          "type": "bytes32"
        }
      ],
      "name": "productMap",
      "outputs": [
        {
          "internalType": "uint256",
          "name": "",
          "type": "uint256"
        }
      ],
      "stateMutability": "view",
      "type": "function"
    },
    {
      "inputs": [
        {
          "internalType": "bytes32",
          "name": "",
          "type": "bytes32"
        },
        {
          "internalType": "uint256",
          "name": "",
          "type": "uint256"
        }
      ],
      "name": "productReports",
      "outputs": [
        {
          "internalType": "uint256",
          "name": "",
          "type": "uint256"
        }
      ],
      "stateMutability": "view",
      "type": "function"
    },
    {
      "inputs": [
        {
          "internalType": "bytes32",
          "name": "",
          "type": "bytes32"
        }
      ],
      "name": "productsForSale",
      "outputs": [
        {
          "internalType": "bytes32",
          "name": "",
          "type": "bytes32"
        }
      ],
      "stateMutability": "view",
      "type": "function"
    },
    {
      "inputs": [
        {
          "internalType": "bytes32",
          "name": "",
          "type": "bytes32"
        }
      ],
      "name": "productsManufactured",
      "outputs": [
        {
          "internalType": "bytes32",
          "name": "",
          "type": "bytes32"
        }
      ],
      "stateMutability": "view",
      "type": "function"
    },
    {
      "inputs": [
        {
          "internalType": "bytes32",
          "name": "",
          "type": "bytes32"
        }
      ],
      "name": "productsSold",
      "outputs": [
        {
          "internalType": "bytes32",
          "name": "",
          "type": "bytes32"
        }
      ],
      "stateMutability": "view",
      "type": "function"
    },
    {
      "inputs": [
        {
          "internalType": "bytes32",
          "name": "",
          "type": "bytes32"
        },
        {
          "internalType": "uint256",
          "name": "",
          "type": "uint256"
        }
      ],
      "name": "productsWithConsumer",
      "outputs": [
        {
          "internalType": "bytes32",
          "name": "",
          "type": "bytes32"
        }
      ],
      "stateMutability": "view",
      "type": "function"
    },
    {
      "inputs": [
        {
          "internalType": "bytes32",
          "name": "",
          "type": "bytes32"
        },
        {
          "internalType": "uint256",
          "name": "",
          "type": "uint256"
        }
      ],
      "name": "productsWithSeller",
      "outputs": [
        {
          "internalType": "bytes32",
          "name": "",
          "type": "bytes32"
        }
      ],
      "stateMutability": "view",
      "type": "function"
    },
    {
      "inputs": [
        {
          "internalType": "uint256",
          "name": "",
          "type": "uint256"
        }
      ],
      "name": "sellers",
      "outputs": [
        {
          "internalType": "uint256",
          "name": "sellerId",
          "type": "uint256"
        },
        {
          "internalType": "bytes32",
          "name": "sellerName",
          "type": "bytes32"
        },
        {
          "internalType": "bytes32",
          "name": "sellerBrand",
          "type": "bytes32"
        },
        {
          "internalType": "bytes32",
          "name": "sellerCode",
          "type": "bytes32"
        },
        {
          "internalType": "uint256",
          "name": "sellerNum",
          "type": "uint256"
        },
        {
          "internalType": "bytes32",
          "name": "sellerManager",
          "type": "bytes32"
        },
        {
          "internalType": "bytes32",
          "name": "sellerAddress",
          "type": "bytes32"
        }
      ],
      "stateMutability": "view",
      "type": "function"
    },
    {
      "inputs": [
        {
          "internalType": "bytes32",
          "name": "",
          "type": "bytes32"
        },
        {
          "internalType": "uint256",
          "name": "",
          "type": "uint256"
        }
      ],
      "name": "sellersWithManufacturer",
      "outputs": [
        {
          "internalType": "bytes32",
          "name": "",
          "type": "bytes32"
        }
      ],
      "stateMutability": "view",
      "type": "function"
    },
    {
      "inputs": [
        {
          "internalType": "bytes32",
          "name": "_manufacturerId",
          "type": "bytes32"
        },
        {
          "internalType": "bytes32",
          "name": "_sellerName",
          "type": "bytes32"
        },
        {
          "internalType": "bytes32",
          "name": "_sellerBrand",
          "type": "bytes32"
        },
        {
          "internalType": "bytes32",
          "name": "_sellerCode",
          "type": "bytes32"
        },
        {
          "internalType": "uint256",
          "name": "_sellerNum",
          "type": "uint256"
        },
        {
          "internalType": "bytes32",
          "name": "_sellerManager",
          "type": "bytes32"
        },
        {
          "internalType": "bytes32",
          "name": "_sellerAddress",
          "type": "bytes32"
        }
      ],
      "name": "addSeller",
      "outputs": [],
      "stateMutability": "nonpayable",
      "type": "function"
    },
    {
      "inputs": [],
      "name": "viewSellers",
      "outputs": [
        {
          "internalType": "uint256[]",
          "name": "",
          "type": "uint256[]"
        },
        {
          "internalType": "bytes32[]",
          "name": "",
          "type": "bytes32[]"
        },
        {
          "internalType": "bytes32[]",
          "name": "",
          "type": "bytes32[]"
        },
        {
          "internalType": "bytes32[]",
          "name": "",
          "type": "bytes32[]"
        },
        {
          "internalType": "uint256[]",
          "name": "",
          "type": "uint256[]"
        },
        {
          "internalType": "bytes32[]",
          "name": "",
          "type": "bytes32[]"
        },
        {
          "internalType": "bytes32[]",
          "name": "",
          "type": "bytes32[]"
        }
      ],
      "stateMutability": "view",
      "type": "function"
    },
    {
      "inputs": [
        {
          "internalType": "bytes32",
          "name": "_manufactuerID",
          "type": "bytes32"
        },
        {
          "internalType": "bytes32",
          "name": "_productName",
          "type": "bytes32"
        },
        {
          "internalType": "bytes32",
          "name": "_productSN",
          "type": "bytes32"
        },
        {
          "internalType": "bytes32",
          "name": "_productBrand",
          "type": "bytes32"
        },
        {
          "internalType": "uint256",
          "name": "_productPrice",
          "type": "uint256"
        }
      ],
      "name": "addProduct",
      "outputs": [],
      "stateMutability": "nonpayable",
      "type": "function"
    },
    {
      "inputs": [],
      "name": "viewProductItems",
      "outputs": [
        {
          "internalType": "uint256[]",
          "name": "",
          "type": "uint256[]"
        },
        {
          "internalType": "bytes32[]",
          "name": "",
          "type": "bytes32[]"
        },
        {
          "internalType": "bytes32[]",
          "name": "",
          "type": "bytes32[]"
        },
        {
          "internalType": "bytes32[]",
          "name": "",
          "type": "bytes32[]"
        },
        {
          "internalType": "uint256[]",
          "name": "",
          "type": "uint256[]"
        },
        {
          "internalType": "bytes32[]",
          "name": "",
          "type": "bytes32[]"
        }
      ],
      "stateMutability": "view",
      "type": "function"
    },
    {
      "inputs": [
        {
          "internalType": "bytes32",
          "name": "_productSN",
          "type": "bytes32"
        },
        {
          "internalType": "bytes32",
          "name": "_sellerCode",
          "type": "bytes32"
        }
      ],
      "name": "manufacturerSellProduct",
      "outputs": [],
      "stateMutability": "nonpayable",
      "type": "function"
    },
    {
      "inputs": [
        {
          "internalType": "bytes32",
          "name": "_productSN",
          "type": "bytes32"
        },
        {
          "internalType": "bytes32",
          "name": "_consumerCode",
          "type": "bytes32"
        }
      ],
      "name": "sellerSellProduct",
      "outputs": [],
      "stateMutability": "nonpayable",
      "type": "function"
    },
    {
      "inputs": [
        {
          "internalType": "bytes32",
          "name": "_sellerCode",
          "type": "bytes32"
        }
      ],
      "name": "queryProductsList",
      "outputs": [
        {
          "internalType": "uint256[]",
          "name": "",
          "type": "uint256[]"
        },
        {
          "internalType": "bytes32[]",
          "name": "",
          "type": "bytes32[]"
        },
        {
          "internalType": "bytes32[]",
          "name": "",
          "type": "bytes32[]"
        },
        {
          "internalType": "bytes32[]",
          "name": "",
          "type": "bytes32[]"
        },
        {
          "internalType": "uint256[]",
          "name": "",
          "type": "uint256[]"
        },
        {
          "internalType": "bytes32[]",
          "name": "",
          "type": "bytes32[]"
        }
      ],
      "stateMutability": "view",
      "type": "function"
    },
    {
      "inputs": [
        {
          "internalType": "bytes32",
          "name": "_manufacturerCode",
          "type": "bytes32"
        }
      ],
      "name": "querySellersList",
      "outputs": [
        {
          "internalType": "uint256[]",
          "name": "",
          "type": "uint256[]"
        },
        {
          "internalType": "bytes32[]",
          "name": "",
          "type": "bytes32[]"
        },
        {
          "internalType": "bytes32[]",
          "name": "",
          "type": "bytes32[]"
        },
        {
          "internalType": "bytes32[]",
          "name": "",
          "type": "bytes32[]"
        },
        {
          "internalType": "uint256[]",
          "name": "",
          "type": "uint256[]"
        },
        {
          "internalType": "bytes32[]",
          "name": "",
          "type": "bytes32[]"
        },
        {
          "internalType": "bytes32[]",
          "name": "",
          "type": "bytes32[]"
        }
      ],
      "stateMutability": "view",
      "type": "function"
    },
    {
      "inputs": [
        {
          "internalType": "bytes32",
          "name": "_consumerCode",
          "type": "bytes32"
        }
      ],
      "name": "getPurchaseHistory",
      "outputs": [
        {
          "internalType": "bytes32[]",
          "name": "",
          "type": "bytes32[]"
        },
        {
          "internalType": "bytes32[]",
          "name": "",
          "type": "bytes32[]"
        },
        {
          "internalType": "bytes32[]",
          "name": "",
          "type": "bytes32[]"
        }
      ],
      "stateMutability": "view",
      "type": "function"
    },
    {
      "inputs": [
        {
          "internalType": "bytes32",
          "name": "_productSN",
          "type": "bytes32"
        },
        {
          "internalType": "bytes32",
          "name": "_consumerCode",
          "type": "bytes32"
        }
      ],
      "name": "verifyProduct",
      "outputs": [
        {
          "internalType": "bool",
          "name": "",
          "type": "bool"
        }
      ],
      "stateMutability": "view",
      "type": "function"
    },
    {
      "inputs": [
        {
          "internalType": "bytes32",
          "name": "_manufacturerName",
          "type": "bytes32"
        },
        {
          "internalType": "bytes32",
          "name": "_manufacturerBrand",
          "type": "bytes32"
        },
        {
          "internalType": "bytes32",
          "name": "_manufacturerCode",
          "type": "bytes32"
        },
        {
          "internalType": "uint256",
          "name": "_manufacturerPhone",
          "type": "uint256"
        },
        {
          "internalType": "bytes32",
          "name": "_manufacturerManager",
          "type": "bytes32"
        },
        {
          "internalType": "bytes32",
          "name": "_manufacturerAddress",
          "type": "bytes32"
        }
      ],
      "name": "registerManufacturer",
      "outputs": [],
      "stateMutability": "nonpayable",
      "type": "function"
    },
    {
      "inputs": [
        {
          "internalType": "bytes32",
          "name": "_manufacturerCode",
          "type": "bytes32"
        }
      ],
      "name": "getManufacturerDetails",
      "outputs": [
        {
          "internalType": "uint256",
          "name": "",
          "type": "uint256"
        },
        {
          "internalType": "bytes32",
          "name": "",
          "type": "bytes32"
        },
        {
          "internalType": "bytes32",
          "name": "",
          "type": "bytes32"
        },
        {
          "internalType": "bytes32",
          "name": "",
          "type": "bytes32"
        },
        {
          "internalType": "uint256",
          "name": "",
          "type": "uint256"
        },
        {
          "internalType": "bytes32",
          "name": "",
          "type": "bytes32"
        },
        {
          "internalType": "bytes32",
          "name": "",
          "type": "bytes32"
        }
      ],
      "stateMutability": "view",
      "type": "function"
    },
    {
      "inputs": [
        {
          "internalType": "bytes32",
          "name": "_productSN",
          "type": "bytes32"
        },
        {
          "internalType": "bytes32",
          "name": "_reporterCode",
          "type": "bytes32"
        },
        {
          "internalType": "bytes32",
          "name": "_description",
          "type": "bytes32"
        }
      ],
      "name": "reportFakeProduct",
      "outputs": [],
      "stateMutability": "nonpayable",
      "type": "function"
    },
    {
      "inputs": [
        {
          "internalType": "uint256",
          "name": "_reportId",
          "type": "uint256"
        },
        {
          "internalType": "bytes32",
          "name": "_newStatus",
          "type": "bytes32"
        },
        {
          "internalType": "bytes32",
          "name": "_manufacturerCode",
          "type": "bytes32"
        }
      ],
      "name": "updateReportStatus",
      "outputs": [],
      "stateMutability": "nonpayable",
      "type": "function"
    },
    {
      "inputs": [
        {
          "internalType": "bytes32",
          "name": "_productSN",
          "type": "bytes32"
        }
      ],
      "name": "getProductReports",
      "outputs": [
        {
          "internalType": "uint256[]",
          "name": "",
          "type": "uint256[]"
        },
        {
          "internalType": "bytes32[]",
          "name": "",
          "type": "bytes32[]"
        },
        {
          "internalType": "bytes32[]",
          "name": "",
          "type": "bytes32[]"
        },
        {
          "internalType": "bytes32[]",
          "name": "",
          "type": "bytes32[]"
        },
        {
          "internalType": "uint256[]",
          "name": "",
          "type": "uint256[]"
        }
      ],
      "stateMutability": "view",
      "type": "function"
    },
    {
      "inputs": [
        {
          "internalType": "bytes32",
          "name": "_manufacturerCode",
          "type": "bytes32"
        }
      ],
      "name": "getManufacturerReports",
      "outputs": [
        {
          "internalType": "uint256[]",
          "name": "",
          "type": "uint256[]"
        },
        {
          "internalType": "bytes32[]",
          "name": "",
          "type": "bytes32[]"
        },
        {
          "internalType": "bytes32[]",
          "name": "",
          "type": "bytes32[]"
        },
        {
          "internalType": "bytes32[]",
          "name": "",
          "type": "bytes32[]"
        },
        {
          "internalType": "uint256[]",
          "name": "",
          "type": "uint256[]"
        }
      ],
      "stateMutability": "view",
      "type": "function"
    }
  ],
  "bytecode": "0x608060405234801561001057600080fd5b506137ca806100206000396000f3fe608060405234801561001057600080fd5b50600436106101da5760003560e01c80639ea4695d11610104578063caaf2751116100a2578063e262113f11610071578063e262113f14610646578063e89def6c14610676578063ef35a82c146106a6578063f8b96a4c146106db576101da565b8063caaf275114610577578063cd4f6a2e146105ac578063cee26ed5146105dc578063d919041e14610612576101da565b8063ac263d42116100de578063ac263d42146104df578063b0c7ad94146104fb578063b95b728414610517578063c20805b414610547576101da565b80639ea4695d14610447578063a090f47c14610479578063a70402af146104a9576101da565b80632f51e4f71161017c57806390175af11161014b57806390175af11461039057806392162bc4146103c65780639316bff0146103fb5780639cd777dd14610417576101da565b80632f51e4f7146102f8578063344b5d51146103145780634b993001146103445780638577a70114610374576101da565b8063130aa81f116101b8578063130aa81f1461024f5780631836bd4b146102855780631b3658c8146102a85780631f552aa2146102c4576101da565b8063032f95e6146101df5780630f5736ed14610203578063100b6ba21461021f575b600080fd5b6101e761070b565b6040516101fa9796959493929190612c18565b60405180910390f35b61021d60048036038101906102189190612d15565b610af8565b005b61023960048036038101906102349190612d68565b610bcd565b6040516102469190612da4565b60405180910390f35b61026960048036038101906102649190612d68565b610be5565b60405161027c9796959493929190612c18565b60405180910390f35b61028d6110a8565b60405161029f96959493929190612dbf565b60405180910390f35b6102c260048036038101906102bd9190612e4a565b611410565b005b6102de60048036038101906102d99190612d68565b6114fc565b6040516102ef959493929190612eec565b60405180910390f35b610312600480360381019061030d9190612f62565b6117ea565b005b61032e60048036038101906103299190612fb5565b611a07565b60405161033b9190613010565b60405180910390f35b61035e6004803603810190610359919061302b565b611a38565b60405161036b919061307a565b60405180910390f35b61038e60048036038101906103899190612fb5565b611a69565b005b6103aa60048036038101906103a59190613095565b611abf565b6040516103bd97969594939291906130c2565b60405180910390f35b6103e060048036038101906103db9190612d68565b611b01565b6040516103f296959493929190612dbf565b60405180910390f35b61041560048036038101906104109190613131565b611f3a565b005b610431600480360381019061042c919061302b565b61202e565b60405161043e919061307a565b60405180910390f35b610461600480360381019061045c9190612d68565b61205f565b604051610470939291906131ac565b60405180910390f35b610493600480360381019061048e9190612d68565b612233565b6040516104a0919061307a565b60405180910390f35b6104c360048036038101906104be9190612d68565b61224b565b6040516104d697969594939291906130c2565b60405180910390f35b6104f960048036038101906104f491906131f8565b612393565b005b61051560048036038101906105109190612fb5565b6124d3565b005b610531600480360381019061052c9190612d68565b6125fd565b60405161053e9190613010565b60405180910390f35b610561600480360381019061055c9190612d68565b61261d565b60405161056e919061307a565b60405180910390f35b610591600480360381019061058c9190613095565b612635565b6040516105a396959493929190613285565b60405180910390f35b6105c660048036038101906105c19190612d68565b612671565b6040516105d3919061307a565b60405180910390f35b6105f660048036038101906105f19190613095565b612689565b60405161060997969594939291906130c2565b60405180910390f35b61062c60048036038101906106279190612d68565b6126cb565b60405161063d959493929190612eec565b60405180910390f35b610660600480360381019061065b919061302b565b6129b9565b60405161066d919061307a565b60405180910390f35b610690600480360381019061068b919061302b565b6129ea565b60405161069d9190612da4565b60405180910390f35b6106c060048036038101906106bb9190613095565b612a1b565b6040516106d2969594939291906132e6565b60405180910390f35b6106f560048036038101906106f0919061302b565b612a57565b6040516107029190612da4565b60405180910390f35b60608060608060608060606000805467ffffffffffffffff81111561073357610732613347565b5b6040519080825280602002602001820160405280156107615781602001602082028036833780820191505090505b5090506000805467ffffffffffffffff81111561078157610780613347565b5b6040519080825280602002602001820160405280156107af5781602001602082028036833780820191505090505b5090506000805467ffffffffffffffff8111156107cf576107ce613347565b5b6040519080825280602002602001820160405280156107fd5781602001602082028036833780820191505090505b5090506000805467ffffffffffffffff81111561081d5761081c613347565b5b60405190808252806020026020018201604052801561084b5781602001602082028036833780820191505090505b5090506000805467ffffffffffffffff81111561086b5761086a613347565b5b6040519080825280602002602001820160405280156108995781602001602082028036833780820191505090505b5090506000805467ffffffffffffffff8111156108b9576108b8613347565b5b6040519080825280602002602001820160405280156108e75781602001602082028036833780820191505090505b5090506000805467ffffffffffffffff81111561090757610906613347565b5b6040519080825280602002602001820160405280156109355781602001602082028036833780820191505090505b50905060005b600054811015610ad257600460008281526020019081526020016000206000015488828151811061096f5761096e613376565b5b60200260200101818152505060046000828152602001908152602001600020600101548782815181106109a5576109a4613376565b5b60200260200101818152505060046000828152602001908152602001600020600201548682815181106109db576109da613376565b5b6020026020010181815250506004600082815260200190815260200160002060030154858281518110610a1157610a10613376565b5b6020026020010181815250506004600082815260200190815260200160002060040154848281518110610a4757610a46613376565b5b6020026020010181815250506004600082815260200190815260200160002060050154838281518110610a7d57610a7c613376565b5b6020026020010181815250506004600082815260200190815260200160002060060154828281518110610ab357610ab2613376565b5b6020026020010181815250508080610aca906133d4565b91505061093b565b50868686868686869d509d509d509d509d509d509d505050505050505090919293949596565b6003548310610b3c576040517f08c379a0000000000000000000000000000000000000000000000000000000008152600401610b339061347a565b60405180910390fd5b6000600f600085815260200190815260200160002060010154905081600760008381526020019081526020016000205414610bac576040517f08c379a0000000000000000000000000000000000000000000000000000000008152600401610ba39061350c565b60405180910390fd5b82600f60008681526020019081526020016000206004018190555050505050565b60066020528060005260406000206000915090505481565b60608060608060608060606000600c60008a8152602001908152602001600020805480602002602001604051908101604052809291908181526020018280548015610c4f57602002820191906000526020600020905b815481526020019060010190808311610c3b575b50505050509050600080805467ffffffffffffffff811115610c7457610c73613347565b5b604051908082528060200260200182016040528015610ca25781602001602082028036833780820191505090505b5090506000805467ffffffffffffffff811115610cc257610cc1613347565b5b604051908082528060200260200182016040528015610cf05781602001602082028036833780820191505090505b5090506000805467ffffffffffffffff811115610d1057610d0f613347565b5b604051908082528060200260200182016040528015610d3e5781602001602082028036833780820191505090505b5090506000805467ffffffffffffffff811115610d5e57610d5d613347565b5b604051908082528060200260200182016040528015610d8c5781602001602082028036833780820191505090505b5090506000805467ffffffffffffffff811115610dac57610dab613347565b5b604051908082528060200260200182016040528015610dda5781602001602082028036833780820191505090505b5090506000805467ffffffffffffffff811115610dfa57610df9613347565b5b604051908082528060200260200182016040528015610e285781602001602082028036833780820191505090505b5090506000805467ffffffffffffffff811115610e4857610e47613347565b5b604051908082528060200260200182016040528015610e765781602001602082028036833780820191505090505b50905060005b60005481101561107e5760005b8a5181101561106a578a8181518110610ea557610ea4613376565b5b602002602001015160046000848152602001908152602001600020600301541415611057576004600083815260200190815260200160002060000154898b81518110610ef457610ef3613376565b5b6020026020010181815250506004600083815260200190815260200160002060010154888b81518110610f2a57610f29613376565b5b6020026020010181815250506004600083815260200190815260200160002060020154878b81518110610f6057610f5f613376565b5b6020026020010181815250506004600083815260200190815260200160002060030154868b81518110610f9657610f95613376565b5b6020026020010181815250506004600083815260200190815260200160002060040154858b81518110610fcc57610fcb613376565b5b6020026020010181815250506004600083815260200190815260200160002060050154848b8151811061100257611001613376565b5b6020026020010181815250506004600083815260200190815260200160002060060154838b8151811061103857611037613376565b5b602002602001018181525050898061104f906133d4565b9a505061106a565b8080611062906133d4565b915050610e89565b508080611076906133d4565b915050610e7c565b50868686868686869f509f509f509f509f509f509f50505050505050505050919395979092949650565b606080606080606080600060015467ffffffffffffffff8111156110cf576110ce613347565b5b6040519080825280602002602001820160405280156110fd5781602001602082028036833780820191505090505b509050600060015467ffffffffffffffff81111561111e5761111d613347565b5b60405190808252806020026020018201604052801561114c5781602001602082028036833780820191505090505b509050600060015467ffffffffffffffff81111561116d5761116c613347565b5b60405190808252806020026020018201604052801561119b5781602001602082028036833780820191505090505b509050600060015467ffffffffffffffff8111156111bc576111bb613347565b5b6040519080825280602002602001820160405280156111ea5781602001602082028036833780820191505090505b509050600060015467ffffffffffffffff81111561120b5761120a613347565b5b6040519080825280602002602001820160405280156112395781602001602082028036833780820191505090505b509050600060015467ffffffffffffffff81111561125a57611259613347565b5b6040519080825280602002602001820160405280156112885781602001602082028036833780820191505090505b50905060005b6001548110156113ef5760056000828152602001908152602001600020600001548782815181106112c2576112c1613376565b5b60200260200101818152505060056000828152602001908152602001600020600101548682815181106112f8576112f7613376565b5b602002602001018181525050600560008281526020019081526020016000206002015485828151811061132e5761132d613376565b5b602002602001018181525050600560008281526020019081526020016000206003015484828151811061136457611363613376565b5b602002602001018181525050600560008281526020019081526020016000206004015483828151811061139a57611399613376565b5b60200260200101818152505060056000828152602001908152602001600020600501548282815181106113d0576113cf613376565b5b60200260200101818152505080806113e7906133d4565b91505061128e565b508585858585859b509b509b509b509b509b50505050505050909192939495565b6040518060e001604052806000548152602001878152602001868152602001858152602001848152602001838152602001828152506004600080548152602001908152602001600020600082015181600001556020820151816001015560408201518160020155606082015181600301556080820151816004015560a0820151816005015560c082015181600601559050506000808154809291906114b4906133d4565b9190505550600c600088815260200190815260200160002084908060018154018082558091505060019003906000526020600020016000909190919091505550505050505050565b606080606080606060006011600088815260200190815260200160002080548060200260200160405190810160405280929190818152602001828054801561156357602002820191906000526020600020905b81548152602001906001019080831161154f575b5050505050905060008151905060008167ffffffffffffffff81111561158c5761158b613347565b5b6040519080825280602002602001820160405280156115ba5781602001602082028036833780820191505090505b50905060008267ffffffffffffffff8111156115d9576115d8613347565b5b6040519080825280602002602001820160405280156116075781602001602082028036833780820191505090505b50905060008367ffffffffffffffff81111561162657611625613347565b5b6040519080825280602002602001820160405280156116545781602001602082028036833780820191505090505b50905060008467ffffffffffffffff81111561167357611672613347565b5b6040519080825280602002602001820160405280156116a15781602001602082028036833780820191505090505b50905060005b858110156117cb576000600f60008984815181106116c8576116c7613376565b5b602002602001015181526020019081526020016000206040518060c001604052908160008201548152602001600182015481526020016002820154815260200160038201548152602001600482015481526020016005820154815250509050806020015186838151811061173f5761173e613376565b5b602002602001018181525050806060015185838151811061176357611762613376565b5b602002602001018181525050806080015184838151811061178757611786613376565b5b6020026020010181815250508060a001518383815181106117ab576117aa613376565b5b6020026020010181815250505080806117c3906133d4565b9150506116a7565b5085848484849a509a509a509a509a5050505050505091939590929450565b600083141561182e576040517f08c379a00000000000000000000000000000000000000000000000000000000081526004016118259061359e565b60405180910390fd5b6000821415611872576040517f08c379a00000000000000000000000000000000000000000000000000000000081526004016118699061360a565b60405180910390fd5b60006007600085815260200190815260200160002054905060008114156118ce576040517f08c379a00000000000000000000000000000000000000000000000000000000081526004016118c59061369c565b60405180910390fd5b6040518060c0016040528060035481526020018581526020018481526020018381526020017f50656e64696e6700000000000000000000000000000000000000000000000000815260200142815250600f60006003548152602001908152602001600020600082015181600001556020820151816001015560408201518160020155606082015181600301556080820151816004015560a08201518160050155905050601060008581526020019081526020016000206003549080600181540180825580915050600190039060005260206000200160009091909190915055601160008281526020019081526020016000206003549080600181540180825580915050600190039060005260206000200160009091909190915055600360008154809291906119fc906133d4565b919050555050505050565b60008160096000858152602001908152602001600020541415611a2d5760019050611a32565b600090505b92915050565b600a6020528160005260406000208181548110611a5457600080fd5b90600052602060002001600091509150505481565b600a60008281526020019081526020016000208290806001815401808255809150506001900390600052602060002001600090919091909150558060086000848152602001908152602001600020819055505050565b600d6020528060005260406000206000915090508060000154908060010154908060020154908060030154908060040154908060050154908060060154905087565b6060806060806060806000600a6000898152602001908152602001600020805480602002602001604051908101604052809291908181526020018280548015611b6957602002820191906000526020600020905b815481526020019060010190808311611b55575b5050505050905060008060015467ffffffffffffffff811115611b8f57611b8e613347565b5b604051908082528060200260200182016040528015611bbd5781602001602082028036833780820191505090505b509050600060015467ffffffffffffffff811115611bde57611bdd613347565b5b604051908082528060200260200182016040528015611c0c5781602001602082028036833780820191505090505b509050600060015467ffffffffffffffff811115611c2d57611c2c613347565b5b604051908082528060200260200182016040528015611c5b5781602001602082028036833780820191505090505b509050600060015467ffffffffffffffff811115611c7c57611c7b613347565b5b604051908082528060200260200182016040528015611caa5781602001602082028036833780820191505090505b509050600060015467ffffffffffffffff811115611ccb57611cca613347565b5b604051908082528060200260200182016040528015611cf95781602001602082028036833780820191505090505b509050600060015467ffffffffffffffff811115611d1a57611d19613347565b5b604051908082528060200260200182016040528015611d485781602001602082028036833780820191505090505b50905060005b600154811015611f165760005b8951811015611f0257898181518110611d7757611d76613376565b5b602002602001015160056000848152602001908152602001600020600101541415611eef576005600083815260200190815260200160002060000154888a81518110611dc657611dc5613376565b5b6020026020010181815250506005600083815260200190815260200160002060010154878a81518110611dfc57611dfb613376565b5b6020026020010181815250506005600083815260200190815260200160002060020154868a81518110611e3257611e31613376565b5b6020026020010181815250506005600083815260200190815260200160002060030154858a81518110611e6857611e67613376565b5b6020026020010181815250506005600083815260200190815260200160002060040154848a81518110611e9e57611e9d613376565b5b6020026020010181815250506005600083815260200190815260200160002060050154838a81518110611ed457611ed3613376565b5b6020026020010181815250508880611eeb906133d4565b9950505b8080611efa906133d4565b915050611d5b565b508080611f0e906133d4565b915050611d4e565b508585858585859d509d509d509d509d509d50505050505050505091939550919395565b6040518060c0016040528060015481526020018481526020018581526020018381526020018281526020017f417661696c61626c650000000000000000000000000000000000000000000000815250600560006001548152602001908152602001600020600082015181600001556020820151816001015560408201518160020155606082015181600301556080820151816004015560a0820151816005015590505060015460066000858152602001908152602001600020819055506001600081548092919061200a906133d4565b91905055508460076000858152602001908152602001600020819055505050505050565b600b602052816000526040600020818154811061204a57600080fd5b90600052602060002001600091509150505481565b60608060606000600b60008681526020019081526020016000208054806020026020016040519081016040528092919081815260200182805480156120c357602002820191906000526020600020905b8154815260200190600101908083116120af575b505050505090506000815167ffffffffffffffff8111156120e7576120e6613347565b5b6040519080825280602002602001820160405280156121155781602001602082028036833780820191505090505b5090506000825167ffffffffffffffff81111561213557612134613347565b5b6040519080825280602002602001820160405280156121635781602001602082028036833780820191505090505b50905060005b835181101561221f576008600085838151811061218957612188613376565b5b60200260200101518152602001908152602001600020548382815181106121b3576121b2613376565b5b602002602001018181525050600760008583815181106121d6576121d5613376565b5b6020026020010151815260200190815260200160002054828281518110612200576121ff613376565b5b6020026020010181815250508080612217906133d4565b915050612169565b508282829550955095505050509193909250565b60086020528060005260406000206000915090505481565b600080600080600080600080600090505b60025481101561234c5788600d600083815260200190815260200160002060030154141561233957600d600082815260200190815260200160002060000154600d600083815260200190815260200160002060010154600d600084815260200190815260200160002060020154600d600085815260200190815260200160002060030154600d600086815260200190815260200160002060040154600d600087815260200190815260200160002060050154600d600088815260200190815260200160002060060154975097509750975097509750975050612388565b8080612344906133d4565b91505061225c565b506040517f08c379a000000000000000000000000000000000000000000000000000000000815260040161237f90613708565b60405180910390fd5b919395979092949650565b600e600085815260200190815260200160002060009054906101000a900460ff16156123f4576040517f08c379a00000000000000000000000000000000000000000000000000000000081526004016123eb90613774565b60405180910390fd5b6040518060e00160405280600254815260200187815260200186815260200185815260200184815260200183815260200182815250600d60006002548152602001908152602001600020600082015181600001556020820151816001015560408201518160020155606082015181600301556080820151816004015560a0820151816005015560c082015181600601559050506001600e600086815260200190815260200160002060006101000a81548160ff021916908315150217905550600260008154809291906124c6906133d4565b9190505550505050505050565b600080600080600154111561252757600091505b600154821015612526578460056000848152602001908152602001600020600101541415612513578190505b818061251e906133d4565b9250506124e7565b5b600560008281526020019081526020016000206005015492507f417661696c61626c6500000000000000000000000000000000000000000000008314156125f6577f4e410000000000000000000000000000000000000000000000000000000000006005600083815260200190815260200160002060050181905550600b60008581526020019081526020016000208590806001815401808255809150506001900390600052602060002001600090919091909150558360096000878152602001908152602001600020819055505b5050505050565b600e6020528060005260406000206000915054906101000a900460ff1681565b60076020528060005260406000206000915090505481565b60056020528060005260406000206000915090508060000154908060010154908060020154908060030154908060040154908060050154905086565b60096020528060005260406000206000915090505481565b60046020528060005260406000206000915090508060000154908060010154908060020154908060030154908060040154908060050154908060060154905087565b606080606080606060006010600088815260200190815260200160002080548060200260200160405190810160405280929190818152602001828054801561273257602002820191906000526020600020905b81548152602001906001019080831161271e575b5050505050905060008151905060008167ffffffffffffffff81111561275b5761275a613347565b5b6040519080825280602002602001820160405280156127895781602001602082028036833780820191505090505b50905060008267ffffffffffffffff8111156127a8576127a7613347565b5b6040519080825280602002602001820160405280156127d65781602001602082028036833780820191505090505b50905060008367ffffffffffffffff8111156127f5576127f4613347565b5b6040519080825280602002602001820160405280156128235781602001602082028036833780820191505090505b50905060008467ffffffffffffffff81111561284257612841613347565b5b6040519080825280602002602001820160405280156128705781602001602082028036833780820191505090505b50905060005b8581101561299a576000600f600089848151811061289757612896613376565b5b602002602001015181526020019081526020016000206040518060c001604052908160008201548152602001600182015481526020016002820154815260200160038201548152602001600482015481526020016005820154815250509050806040015186838151811061290e5761290d613376565b5b602002602001018181525050806060015185838151811061293257612931613376565b5b602002602001018181525050806080015184838151811061295657612955613376565b5b6020026020010181815250508060a0015183838151811061297a57612979613376565b5b602002602001018181525050508080612992906133d4565b915050612876565b5085848484849a509a509a509a509a5050505050505091939590929450565b600c60205281600052604060002081815481106129d557600080fd5b90600052602060002001600091509150505481565b60106020528160005260406000208181548110612a0657600080fd5b90600052602060002001600091509150505481565b600f6020528060005260406000206000915090508060000154908060010154908060020154908060030154908060040154908060050154905086565b60116020528160005260406000208181548110612a7357600080fd5b90600052602060002001600091509150505481565b600081519050919050565b600082825260208201905092915050565b6000819050602082019050919050565b6000819050919050565b612ac781612ab4565b82525050565b6000612ad98383612abe565b60208301905092915050565b6000602082019050919050565b6000612afd82612a88565b612b078185612a93565b9350612b1283612aa4565b8060005b83811015612b43578151612b2a8882612acd565b9750612b3583612ae5565b925050600181019050612b16565b5085935050505092915050565b600081519050919050565b600082825260208201905092915050565b6000819050602082019050919050565b6000819050919050565b612b8f81612b7c565b82525050565b6000612ba18383612b86565b60208301905092915050565b6000602082019050919050565b6000612bc582612b50565b612bcf8185612b5b565b9350612bda83612b6c565b8060005b83811015612c0b578151612bf28882612b95565b9750612bfd83612bad565b925050600181019050612bde565b5085935050505092915050565b600060e0820190508181036000830152612c32818a612af2565b90508181036020830152612c468189612bba565b90508181036040830152612c5a8188612bba565b90508181036060830152612c6e8187612bba565b90508181036080830152612c828186612af2565b905081810360a0830152612c968185612bba565b905081810360c0830152612caa8184612bba565b905098975050505050505050565b600080fd5b612cc681612ab4565b8114612cd157600080fd5b50565b600081359050612ce381612cbd565b92915050565b612cf281612b7c565b8114612cfd57600080fd5b50565b600081359050612d0f81612ce9565b92915050565b600080600060608486031215612d2e57612d2d612cb8565b5b6000612d3c86828701612cd4565b9350506020612d4d86828701612d00565b9250506040612d5e86828701612d00565b9150509250925092565b600060208284031215612d7e57612d7d612cb8565b5b6000612d8c84828501612d00565b91505092915050565b612d9e81612ab4565b82525050565b6000602082019050612db96000830184612d95565b92915050565b600060c0820190508181036000830152612dd98189612af2565b90508181036020830152612ded8188612bba565b90508181036040830152612e018187612bba565b90508181036060830152612e158186612bba565b90508181036080830152612e298185612af2565b905081810360a0830152612e3d8184612bba565b9050979650505050505050565b600080600080600080600060e0888a031215612e6957612e68612cb8565b5b6000612e778a828b01612d00565b9750506020612e888a828b01612d00565b9650506040612e998a828b01612d00565b9550506060612eaa8a828b01612d00565b9450506080612ebb8a828b01612cd4565b93505060a0612ecc8a828b01612d00565b92505060c0612edd8a828b01612d00565b91505092959891949750929550565b600060a0820190508181036000830152612f068188612af2565b90508181036020830152612f1a8187612bba565b90508181036040830152612f2e8186612bba565b90508181036060830152612f428185612bba565b90508181036080830152612f568184612af2565b90509695505050505050565b600080600060608486031215612f7b57612f7a612cb8565b5b6000612f8986828701612d00565b9350506020612f9a86828701612d00565b9250506040612fab86828701612d00565b9150509250925092565b60008060408385031215612fcc57612fcb612cb8565b5b6000612fda85828601612d00565b9250506020612feb85828601612d00565b9150509250929050565b60008115159050919050565b61300a81612ff5565b82525050565b60006020820190506130256000830184613001565b92915050565b6000806040838503121561304257613041612cb8565b5b600061305085828601612d00565b925050602061306185828601612cd4565b9150509250929050565b61307481612b7c565b82525050565b600060208201905061308f600083018461306b565b92915050565b6000602082840312156130ab576130aa612cb8565b5b60006130b984828501612cd4565b91505092915050565b600060e0820190506130d7600083018a612d95565b6130e4602083018961306b565b6130f1604083018861306b565b6130fe606083018761306b565b61310b6080830186612d95565b61311860a083018561306b565b61312560c083018461306b565b98975050505050505050565b600080600080600060a0868803121561314d5761314c612cb8565b5b600061315b88828901612d00565b955050602061316c88828901612d00565b945050604061317d88828901612d00565b935050606061318e88828901612d00565b925050608061319f88828901612cd4565b9150509295509295909350565b600060608201905081810360008301526131c68186612bba565b905081810360208301526131da8185612bba565b905081810360408301526131ee8184612bba565b9050949350505050565b60008060008060008060c0878903121561321557613214612cb8565b5b600061322389828a01612d00565b965050602061323489828a01612d00565b955050604061324589828a01612d00565b945050606061325689828a01612cd4565b935050608061326789828a01612d00565b92505060a061327889828a01612d00565b9150509295509295509295565b600060c08201905061329a6000830189612d95565b6132a7602083018861306b565b6132b4604083018761306b565b6132c1606083018661306b565b6132ce6080830185612d95565b6132db60a083018461306b565b979650505050505050565b600060c0820190506132fb6000830189612d95565b613308602083018861306b565b613315604083018761306b565b613322606083018661306b565b61332f608083018561306b565b61333c60a0830184612d95565b979650505050505050565b7f4e487b7100000000000000000000000000000000000000000000000000000000600052604160045260246000fd5b7f4e487b7100000000000000000000000000000000000000000000000000000000600052603260045260246000fd5b7f4e487b7100000000000000000000000000000000000000000000000000000000600052601160045260246000fd5b60006133df82612ab4565b91507fffffffffffffffffffffffffffffffffffffffffffffffffffffffffffffffff821415613412576134116133a5565b5b600182019050919050565b600082825260208201905092915050565b7f5265706f727420646f6573206e6f742065786973740000000000000000000000600082015250565b600061346460158361341d565b915061346f8261342e565b602082019050919050565b6000602082019050818103600083015261349381613457565b9050919050565b7f4f6e6c79207468652070726f64756374206d616e75666163747572657220636160008201527f6e20757064617465207265706f72742073746174757300000000000000000000602082015250565b60006134f660368361341d565b91506135018261349a565b604082019050919050565b60006020820190508181036000830152613525816134e9565b9050919050565b7f50726f647563742073657269616c206e756d6265722063616e6e6f742062652060008201527f656d707479000000000000000000000000000000000000000000000000000000602082015250565b600061358860258361341d565b91506135938261352c565b604082019050919050565b600060208201905081810360008301526135b78161357b565b9050919050565b7f5265706f7274657220636f64652063616e6e6f7420626520656d707479000000600082015250565b60006135f4601d8361341d565b91506135ff826135be565b602082019050919050565b60006020820190508181036000830152613623816135e7565b9050919050565b7f50726f64756374206e6f7420666f756e64206f72206d616e756661637475726560008201527f72206e6f74207265676973746572656400000000000000000000000000000000602082015250565b600061368660308361341d565b91506136918261362a565b604082019050919050565b600060208201905081810360008301526136b581613679565b9050919050565b7f4d616e756661637475726572206e6f7420666f756e6400000000000000000000600082015250565b60006136f260168361341d565b91506136fd826136bc565b602082019050919050565b60006020820190508181036000830152613721816136e5565b9050919050565b7f4d616e75666163747572657220636f646520616c726561647920657869737473600082015250565b600061375e60208361341d565b915061376982613728565b602082019050919050565b6000602082019050818103600083015261378d81613751565b905091905056fea2646970667358221220e3a514093d92ec910ec6c2cf8e455707094c0a2e6ddab1b45f0f823948fb453164736f6c634300080c0033",
  "immutableReferences": {},
  "source": "pragma solidity ^0.8.12;\r\n\r\ncontract product {\r\n\r\n    uint256 sellerCount;\r\n    uint256 productCount;\r\n    uint256 manufacturerCount;\r\n    uint256 reportCount;\r\n\r\n    struct seller{\r\n        uint256 sellerId;\r\n        bytes32 sellerName;\r\n        bytes32 sellerBrand;\r\n        bytes32 sellerCode;\r\n        uint256 sellerNum;\r\n        bytes32 sellerManager;\r\n        bytes32 sellerAddress;\r\n    }\r\n    mapping(uint=>seller) public sellers;\r\n\r\n    struct productItem{\r\n        uint256 productId;\r\n        bytes32 productSN;\r\n        bytes32 productName;\r\n        bytes32 productBrand;\r\n        uint256 productPrice;\r\n        bytes32 productStatus;\r\n    }\r\n\r\n    mapping(uint256=>productItem) public productItems;\r\n    mapping(bytes32=>uint256) public productMap;\r\n    mapping(bytes32=>bytes32) public productsManufactured;\r\n    mapping(bytes32=>bytes32) public productsForSale;\r\n    mapping(bytes32=>bytes32) public productsSold;\r\n    mapping(bytes32=>bytes32[]) public productsWithSeller;\r\n    mapping(bytes32=>bytes32[]) public productsWithConsumer;\r\n    mapping(bytes32=>bytes32[]) public sellersWithManufacturer;\r\n\r\n    struct manufacturer {\r\n        uint256 manufacturerId;\r\n        bytes32 manufacturerName;\r\n        bytes32 manufacturerBrand;\r\n        bytes32 manufacturerCode;\r\n        uint256 manufacturerPhone;\r\n        bytes32 manufacturerManager;\r\n        bytes32 manufacturerAddress;\r\n    }\r\n\r\n    mapping(uint256 => manufacturer) public manufacturers;\r\n    mapping(bytes32 => bool) public manufacturerExists;\r\n\r\n    struct FakeProductReport {\r\n        uint256 reportId;\r\n        bytes32 productSN;\r\n        bytes32 reporterCode;\r\n        bytes32 description;\r\n        bytes32 status; // \"Pending\", \"Investigating\", \"Resolved\"\r\n        uint256 timestamp;\r\n    }\r\n\r\n    mapping(uint256 => FakeProductReport) public fakeProductReports;\r\n    mapping(bytes32 => uint256[]) public productReports; // productSN => reportIds\r\n    mapping(bytes32 => uint256[]) public manufacturerReports; // manufacturerCode => reportIds\r\n\r\n    //SELLER SECTION\r\n\r\n    function addSeller(bytes32 _manufacturerId, bytes32 _sellerName, bytes32 _sellerBrand, bytes32 _sellerCode,\r\n    uint256 _sellerNum, bytes32 _sellerManager, bytes32 _sellerAddress) public{\r\n        sellers[sellerCount] = seller(sellerCount, _sellerName, _sellerBrand, _sellerCode,\r\n        _sellerNum, _sellerManager, _sellerAddress);\r\n        sellerCount++;\r\n\r\n        sellersWithManufacturer[_manufacturerId].push(_sellerCode);\r\n    }\r\n\r\n\r\n    function viewSellers () public view returns(uint256[] memory, bytes32[] memory, bytes32[] memory, bytes32[] memory, uint256[] memory, bytes32[] memory, bytes32[] memory) {\r\n        uint256[] memory ids = new uint256[](sellerCount);\r\n        bytes32[] memory snames = new bytes32[](sellerCount);\r\n        bytes32[] memory sbrands = new bytes32[](sellerCount);\r\n        bytes32[] memory scodes = new bytes32[](sellerCount);\r\n        uint256[] memory snums = new uint256[](sellerCount);\r\n        bytes32[] memory smanagers = new bytes32[](sellerCount);\r\n        bytes32[] memory saddress = new bytes32[](sellerCount);\r\n        \r\n        for(uint i=0; i<sellerCount; i++){\r\n            ids[i] = sellers[i].sellerId;\r\n            snames[i] = sellers[i].sellerName;\r\n            sbrands[i] = sellers[i].sellerBrand;\r\n            scodes[i] = sellers[i].sellerCode;\r\n            snums[i] = sellers[i].sellerNum;\r\n            smanagers[i] = sellers[i].sellerManager;\r\n            saddress[i] = sellers[i].sellerAddress;\r\n        }\r\n        return(ids, snames, sbrands, scodes, snums, smanagers, saddress);\r\n    }\r\n\r\n    //PRODUCT SECTION\r\n\r\n    function addProduct(bytes32 _manufactuerID, bytes32 _productName, bytes32 _productSN, bytes32 _productBrand,\r\n    uint256 _productPrice) public{\r\n        productItems[productCount] = productItem(productCount, _productSN, _productName, _productBrand,\r\n        _productPrice, \"Available\");\r\n        productMap[_productSN] = productCount;\r\n        productCount++;\r\n        productsManufactured[_productSN] = _manufactuerID;\r\n    }\r\n\r\n\r\n    function viewProductItems () public view returns(uint256[] memory, bytes32[] memory, bytes32[] memory, bytes32[] memory, uint256[] memory, bytes32[] memory) {\r\n        uint256[] memory pids = new uint256[](productCount);\r\n        bytes32[] memory pSNs = new bytes32[](productCount);\r\n        bytes32[] memory pnames = new bytes32[](productCount);\r\n        bytes32[] memory pbrands = new bytes32[](productCount);\r\n        uint256[] memory pprices = new uint256[](productCount);\r\n        bytes32[] memory pstatus = new bytes32[](productCount);\r\n        \r\n        for(uint i=0; i<productCount; i++){\r\n            pids[i] = productItems[i].productId;\r\n            pSNs[i] = productItems[i].productSN;\r\n            pnames[i] = productItems[i].productName;\r\n            pbrands[i] = productItems[i].productBrand;\r\n            pprices[i] = productItems[i].productPrice;\r\n            pstatus[i] = productItems[i].productStatus;\r\n        }\r\n        return(pids, pSNs, pnames, pbrands, pprices, pstatus);\r\n    }\r\n\r\n    //SELL Product\r\n\r\n    function manufacturerSellProduct(bytes32 _productSN, bytes32 _sellerCode) public{\r\n        productsWithSeller[_sellerCode].push(_productSN);\r\n        productsForSale[_productSN] = _sellerCode;\r\n\r\n    }\r\n\r\n    function sellerSellProduct(bytes32 _productSN, bytes32 _consumerCode) public{   \r\n        bytes32 pStatus;\r\n        uint256 i;\r\n        uint256 j=0;\r\n\r\n        if(productCount>0) {\r\n            for(i=0;i<productCount;i++) {\r\n                if(productItems[i].productSN == _productSN) {\r\n                    j=i;\r\n                }\r\n            }\r\n        }\r\n\r\n        pStatus = productItems[j].productStatus;\r\n        if(pStatus == \"Available\") {\r\n            productItems[j].productStatus = \"NA\";\r\n            productsWithConsumer[_consumerCode].push(_productSN);\r\n            productsSold[_productSN] = _consumerCode;\r\n        }\r\n\r\n\r\n    }\r\n\r\n\r\n    function queryProductsList(bytes32 _sellerCode) public view returns(uint256[] memory, bytes32[] memory, bytes32[] memory, bytes32[] memory, uint256[] memory, bytes32[] memory){\r\n        bytes32[] memory productSNs = productsWithSeller[_sellerCode];\r\n        uint256 k=0;\r\n\r\n        uint256[] memory pids = new uint256[](productCount);\r\n        bytes32[] memory pSNs = new bytes32[](productCount);\r\n        bytes32[] memory pnames = new bytes32[](productCount);\r\n        bytes32[] memory pbrands = new bytes32[](productCount);\r\n        uint256[] memory pprices = new uint256[](productCount);\r\n        bytes32[] memory pstatus = new bytes32[](productCount);\r\n\r\n        \r\n        for(uint i=0; i<productCount; i++){\r\n            for(uint j=0; j<productSNs.length; j++){\r\n                if(productItems[i].productSN==productSNs[j]){\r\n                    pids[k] = productItems[i].productId;\r\n                    pSNs[k] = productItems[i].productSN;\r\n                    pnames[k] = productItems[i].productName;\r\n                    pbrands[k] = productItems[i].productBrand;\r\n                    pprices[k] = productItems[i].productPrice;\r\n                    pstatus[k] = productItems[i].productStatus;\r\n                    k++;\r\n                }\r\n            }\r\n        }\r\n        return(pids, pSNs, pnames, pbrands, pprices, pstatus);\r\n    }\r\n\r\n    function querySellersList (bytes32 _manufacturerCode) public view returns(uint256[] memory, bytes32[] memory, bytes32[] memory, bytes32[] memory, uint256[] memory, bytes32[] memory, bytes32[] memory) {\r\n        bytes32[] memory sellerCodes = sellersWithManufacturer[_manufacturerCode];\r\n        uint256 k=0;\r\n        uint256[] memory ids = new uint256[](sellerCount);\r\n        bytes32[] memory snames = new bytes32[](sellerCount);\r\n        bytes32[] memory sbrands = new bytes32[](sellerCount);\r\n        bytes32[] memory scodes = new bytes32[](sellerCount);\r\n        uint256[] memory snums = new uint256[](sellerCount);\r\n        bytes32[] memory smanagers = new bytes32[](sellerCount);\r\n        bytes32[] memory saddress = new bytes32[](sellerCount);\r\n        \r\n        for(uint i=0; i<sellerCount; i++){\r\n            for(uint j=0; j<sellerCodes.length; j++){\r\n                if(sellers[i].sellerCode==sellerCodes[j]){\r\n                    ids[k] = sellers[i].sellerId;\r\n                    snames[k] = sellers[i].sellerName;\r\n                    sbrands[k] = sellers[i].sellerBrand;\r\n                    scodes[k] = sellers[i].sellerCode;\r\n                    snums[k] = sellers[i].sellerNum;\r\n                    smanagers[k] = sellers[i].sellerManager;\r\n                    saddress[k] = sellers[i].sellerAddress;\r\n                    k++;\r\n                    break;\r\n               }\r\n            }\r\n        }\r\n\r\n        return(ids, snames, sbrands, scodes, snums, smanagers, saddress);\r\n    }\r\n\r\n    function getPurchaseHistory(bytes32 _consumerCode) public view returns (bytes32[] memory, bytes32[] memory, bytes32[] memory){\r\n        bytes32[] memory productSNs = productsWithConsumer[_consumerCode];\r\n        bytes32[] memory sellerCodes = new bytes32[](productSNs.length);\r\n        bytes32[] memory manufacturerCodes = new bytes32[](productSNs.length);\r\n        for(uint i=0; i<productSNs.length; i++){\r\n            sellerCodes[i] = productsForSale[productSNs[i]];\r\n            manufacturerCodes[i] = productsManufactured[productSNs[i]];\r\n        }\r\n        return (productSNs, sellerCodes, manufacturerCodes);\r\n    }\r\n\r\n    //Verify\r\n\r\n    function verifyProduct(bytes32 _productSN, bytes32 _consumerCode) public view returns(bool){\r\n        if(productsSold[_productSN] == _consumerCode){\r\n            return true;\r\n        }\r\n        else{\r\n            return false;\r\n        }\r\n    }\r\n\r\n    function registerManufacturer(\r\n        bytes32 _manufacturerName,\r\n        bytes32 _manufacturerBrand,\r\n        bytes32 _manufacturerCode,\r\n        uint256 _manufacturerPhone,\r\n        bytes32 _manufacturerManager,\r\n        bytes32 _manufacturerAddress\r\n    ) public {\r\n        require(!manufacturerExists[_manufacturerCode], \"Manufacturer code already exists\");\r\n        \r\n        manufacturers[manufacturerCount] = manufacturer(\r\n            manufacturerCount,\r\n            _manufacturerName,\r\n            _manufacturerBrand,\r\n            _manufacturerCode,\r\n            _manufacturerPhone,\r\n            _manufacturerManager,\r\n            _manufacturerAddress\r\n        );\r\n        \r\n        manufacturerExists[_manufacturerCode] = true;\r\n        manufacturerCount++;\r\n    }\r\n\r\n    function getManufacturerDetails(bytes32 _manufacturerCode) public view returns (\r\n        uint256,\r\n        bytes32,\r\n        bytes32,\r\n        bytes32,\r\n        uint256,\r\n        bytes32,\r\n        bytes32\r\n    ) {\r\n        for (uint256 i = 0; i < manufacturerCount; i++) {\r\n            if (manufacturers[i].manufacturerCode == _manufacturerCode) {\r\n                return (\r\n                    manufacturers[i].manufacturerId,\r\n                    manufacturers[i].manufacturerName,\r\n                    manufacturers[i].manufacturerBrand,\r\n                    manufacturers[i].manufacturerCode,\r\n                    manufacturers[i].manufacturerPhone,\r\n                    manufacturers[i].manufacturerManager,\r\n                    manufacturers[i].manufacturerAddress\r\n                );\r\n            }\r\n        }\r\n        revert(\"Manufacturer not found\");\r\n    }\r\n\r\n    function reportFakeProduct(\r\n        bytes32 _productSN,\r\n        bytes32 _reporterCode,\r\n        bytes32 _description\r\n    ) public {\r\n        require(_productSN != \"\", \"Product serial number cannot be empty\");\r\n        require(_reporterCode != \"\", \"Reporter code cannot be empty\");\r\n        \r\n        bytes32 manufacturerCode = productsManufactured[_productSN];\r\n        require(manufacturerCode != \"\", \"Product not found or manufacturer not registered\");\r\n\r\n        fakeProductReports[reportCount] = FakeProductReport(\r\n            reportCount,\r\n            _productSN,\r\n            _reporterCode,\r\n            _description,\r\n            \"Pending\",\r\n            block.timestamp\r\n        );\r\n\r\n        productReports[_productSN].push(reportCount);\r\n        manufacturerReports[manufacturerCode].push(reportCount);\r\n        reportCount++;\r\n    }\r\n\r\n    function updateReportStatus(\r\n        uint256 _reportId,\r\n        bytes32 _newStatus,\r\n        bytes32 _manufacturerCode\r\n    ) public {\r\n        require(_reportId < reportCount, \"Report does not exist\");\r\n        \r\n        bytes32 productSN = fakeProductReports[_reportId].productSN;\r\n        require(productsManufactured[productSN] == _manufacturerCode, \"Only the product manufacturer can update report status\");\r\n        \r\n        fakeProductReports[_reportId].status = _newStatus;\r\n    }\r\n\r\n    function getProductReports(bytes32 _productSN) public view returns (\r\n        uint256[] memory,\r\n        bytes32[] memory,\r\n        bytes32[] memory,\r\n        bytes32[] memory,\r\n        uint256[] memory\r\n    ) {\r\n        uint256[] memory reportIds = productReports[_productSN];\r\n        uint256 length = reportIds.length;\r\n        \r\n        bytes32[] memory reporters = new bytes32[](length);\r\n        bytes32[] memory descriptions = new bytes32[](length);\r\n        bytes32[] memory statuses = new bytes32[](length);\r\n        uint256[] memory timestamps = new uint256[](length);\r\n        \r\n        for(uint i = 0; i < length; i++) {\r\n            FakeProductReport memory report = fakeProductReports[reportIds[i]];\r\n            reporters[i] = report.reporterCode;\r\n            descriptions[i] = report.description;\r\n            statuses[i] = report.status;\r\n            timestamps[i] = report.timestamp;\r\n        }\r\n        \r\n        return (reportIds, reporters, descriptions, statuses, timestamps);\r\n    }\r\n\r\n    function getManufacturerReports(bytes32 _manufacturerCode) public view returns (\r\n        uint256[] memory,\r\n        bytes32[] memory,\r\n        bytes32[] memory,\r\n        bytes32[] memory,\r\n        uint256[] memory\r\n    ) {\r\n        uint256[] memory reportIds = manufacturerReports[_manufacturerCode];\r\n        uint256 length = reportIds.length;\r\n        \r\n        bytes32[] memory productSNs = new bytes32[](length);\r\n        bytes32[] memory descriptions = new bytes32[](length);\r\n        bytes32[] memory statuses = new bytes32[](length);\r\n        uint256[] memory timestamps = new uint256[](length);\r\n        \r\n        for(uint i = 0; i < length; i++) {\r\n            FakeProductReport memory report = fakeProductReports[reportIds[i]];\r\n            productSNs[i] = report.productSN;\r\n            descriptions[i] = report.description;\r\n            statuses[i] = report.status;\r\n            timestamps[i] = report.timestamp;\r\n        }\r\n        \r\n        return (reportIds, productSNs, descriptions, statuses, timestamps);\r\n    }\r\n}",
  "sourcePath": "C:\\Users\\mypc\\OneDrive\\Desktop\\College\\Major Project\\M10\\Fake-Product-Identification\\contracts\\product.sol",
  "compiler": {
    "name": "solc",
    "version": "0.8.12+commit.f00d7308.Emscripten.clang"
  },
  "schemaVersion": "3.4.11",
  "updatedAt": "2025-05-22T12:42:57.985Z",
  "devdoc": {
    "kind": "dev",
    "methods": {},
    "version": 1
  },
  "userdoc": {
    "kind": "user",
    "methods": {},
    "version": 1
  }
}